:0200000460009A
:10000000464346420004015600000000000303007E
:1000100001010000010400000002000000000000D7
:1000200000000000000000000000000000000000D0
:1000300000000000000000000000000000000000C0
:1000400000000000010407000000000000000000A4
:10005000000000020000000000000000000000009E
:100060000000000000000000000000000000000090
:100070000000000000000000000000000000000080
:10008000EB04180A063204260000000000000000FD
:10009000050404240000000000000000000000002F
:1000A0000000000000000000000000000000000050
:1000B0000604000000000000000000000000000036
:1000C0000000000000000000000000000000000030
:1000D00020040408000000000000000000000000F0
:1000E0000000000000000000000000000000000010
:1000F0000000000000000000000000000000000000
:1001000000000000000000000000000000000000EF
:100110003204180804220000000000000000000063
:1001200000000000000000000000000000000000CF
:10013000C7040000000000000000000000000000F4
:1001400000000000000000000000000000000000AF
:10015000000000000000000000000000000000009F
:10016000000000000000000000000000000000008F
:10017000000000000000000000000000000000007F
:10018000000000000000000000000000000000006F
:10019000000000000000000000000000000000005F
:1001A000000000000000000000000000000000004F
:1001B000000000000000000000000000000000003F
:1001C000000100000010000000000000000000001E
:1001D000000000000000000000000000000000001F
:1001E000000000000000000000000000000000000F
:1001F00000000000000000000000000000000000FF
:0200000460009A
:10100000D10020410020006000000000301000608E
:1010100020100060001000600000000000000000D0
:10102000000000600000000200000000FFFFFFFF62
:10103000D2043041CC03AC04400FC068FFFFFFFF77
:10104000400FC06CFFFFFFFF400FC070FFFFFFFFAE
:10105000400FC074FFFFFFFF400FC078FFFFFFFF8E
:10106000400FC07CFFFFFFFF400FC080FFFFFFFF6E
:10107000400D803000002001400D8100001E000066
:10108000400FC01400010D40401F801400000000FC
:10109000401F801800000000401F801C000000005E
:1010A000401F802000000000401F8024000000003E
:1010B000401F802800000000401F802C000000001E
:1010C000401F803000000000401F803400000000FE
:1010D000401F803800000000401F803C00000000DE
:1010E000401F804000000000401F804400000000BE
:1010F000401F804800000000401F804C000000009E
:10110000401F805000000000401F8054000000007D
:10111000401F805800000000401F805C000000005D
:10112000401F806000000000401F8064000000003D
:10113000401F806800000000401F806C000000001D
:10114000401F807000000000401F807400000000FD
:10115000401F807800000000401F807C00000000DD
:10116000401F808000000000401F808400000000BD
:10117000401F808800000000401F808C000000009D
:10118000401F809000000000401F8094000000007D
:10119000401F809800000000401F809C000000005D
:1011A000401F80A000000000401F80A4000000003D
:1011B000401F80A800000000401F80AC000000001D
:1011C000401F80B000000010401F80B400000000ED
:1011D000401F80B800000000401F8204000110F989
:1011E000401F8208000110F9401F820C000110F915
:1011F000401F8210000110F9401F8214000110F9F5
:10120000401F8218000110F9401F821C000110F9D4
:10121000401F8220000110F9401F8224000110F9B4
:10122000401F8228000110F9401F822C000110F994
:10123000401F8230000110F9401F8234000110F974
:10124000401F8238000110F9401F823C000110F954
:10125000401F8240000110F9401F8244000110F934
:10126000401F8248000110F9401F824C000110F914
:10127000401F8250000110F9401F8254000110F9F4
:10128000401F8258000110F9401F825C000110F9D4
:10129000401F8260000110F9401F8264000110F9B4
:1012A000401F8268000110F9401F826C000110F994
:1012B000401F8270000110F9401F8274000110F974
:1012C000401F8278000110F9401F827C000110F954
:1012D000401F8280000110F9401F8284000110F934
:1012E000401F8288000110F9401F828C000110F914
:1012F000401F8290000110F9401F8294000110F9F4
:10130000401F8298000110F9401F829C000110F9D3
:10131000401F82A0000110F9401F82A4000110F9B3
:10132000401F82A8000110F9402F000010000004A7
:10133000402F000800030524402F000C060305245D
:10134000402F00108000001B402F00148200001B63
:10135000402F00188400001B402F001C8600001B3B
:10136000402F002090000021402F0024A0000019F1
:10137000402F0028A8000017402F002CA900001BB8
:10138000402F003000000021402F0004000079A809
:10139000402F004000000F31402F004400652922FB
:1013A000402F004800010920402F004C50210A081E
:1013B000402F008000000021402F00840088888892
:1013C000402F009400000002402F00980000000011
:1013D000402F009080000000402F009CA55A000F75
:1013E000CF000C1C402F003C00000001CC00140476
:1013F000402F009080000000402F009CA55A000C58
:10140000CF000C1C402F003C00000001CC00140455
:10141000402F009080000000402F009CA55A000C37
:10142000CF000C1C402F003C00000001CC001C042D
:10143000402F00A000000033402F009080000000EB
:10144000402F009CA55A000ACF000C1C402F003CE6
:1014500000000001CC000C04402F004C50210A0970
:0200000460009A
:1020000000000220D5240060ED240060EF24006071
:10201000F1240060F3240060F5240060000000005B
:102020000000000000000000000000001524006017
:10203000F9240060000000007124006059BF0060B6
:10204000FF24006003250060072500600B25006069
:102050000F25006013250060172500601B25006018
:102060001F25006023250060272500602B250060C8
:102070002F25006033250060372500603B25006078
:102080003F250060BB250060BB250060BB250060CC
:10209000199E0060472500604B2500604F250060B9
:1020A00053250060572500605B2500605F250060B8
:1020B00063250060672500606B2500606F25006068
:1020C00073250060772500607B2500607F25006018
:1020D0008325006087250060BB250060BB2500606C
:1020E000BB250060BB250060BB250060E14B0060A4
:1020F000BB250060BB250060BB250060BB250060E0
:10210000BB250060BB250060BB250060BB250060CF
:10211000BB250060BB250060BB250060BB250060BF
:102120008B2500608F250060932500609725006057
:102130009B250060BB250060BB250060BB250060BF
:10214000BB250060BB250060BB250060BB2500608F
:10215000BB250060BB250060BB250060BB2500607F
:10216000BB250060BB250060BB250060BB2500606F
:10217000BB250060BB250060BB250060BB2500605F
:10218000BB250060BB250060BB250060BB2500604F
:10219000BB250060BB250060BB250060BB2500603F
:1021A000BB250060BB2500609F250060A325006063
:1021B000BB250060BB250060BB250060BB2500601F
:1021C000BB250060BB250060BB250060BB2500600F
:1021D000BB250060BB250060BB250060BB250060FF
:1021E000BB250060BB250060BB250060BB250060EF
:1021F000A7250060BB250060AB250060AF2500600F
:10220000BB250060BB250060B3250060C955006098
:10221000BB250060BB250060BB250060BB250060BE
:10222000BB250060BB250060BB250060BB250060AE
:10223000BB250060BB250060BB250060BB2500609E
:10224000BB250060BB250060BB250060BB2500608E
:10225000BB250060BB250060BB250060BB2500607E
:10226000BB250060BB250060BB250060BB2500606E
:10227000BB250060BB250060BB250060BB2500605E
:10228000BB250060BB250060BB250060BB2500604E
:10229000BB250060BB250060BB250060BB2500603E
:1022A000BB250060BB250060BB250060BB2500602E
:1022B000BB250060BB250060BB250060BB2500601E
:1022C000BB250060BB250060BB250060BB2500600E
:1022D000BB250060BB250060BB250060BB250060FE
:1022E000BB250060BB250060BB250060BB250060EE
:1022F000BB250060BB250060BB250060BB250060DE
:10230000BB250060BB250060BB250060BB250060CD
:10231000BB250060BB250060BB250060BB250060BD
:10232000BB250060BB250060BB250060BB250060AD
:10233000BB250060BB250060BB250060BB2500609D
:10234000BB250060BB250060BB250060BB2500608D
:10235000BB250060BB250060BB250060BB2500607D
:10236000BB250060BB250060BB250060BB2500606D
:10237000BB250060BB250060BB250060BB2500605D
:10238000BB250060BB250060BB250060BB2500604D
:10239000BB250060BB250060BB250060BB2500603D
:1023A000BB250060BB250060BB250060BB2500602D
:1023B000BB250060BB250060BB250060BB2500601D
:1023C000BB250060BB250060BB250060BB2500600D
:1023D000BB250060BB250060BB250060BB250060FD
:1023E000BB250060BB250060BB250060BB250060ED
:1023F000BB250060BB250060BB250060FFFFFFFF21
:10240000DFF80CD000F0F6FB00480047492D0260D1
:10241000000002202C4B19680868B0E8F04F80F3E8
:102420000988BFF36F8F4FF0000080F31188704769
:102430000000000008480068006880F308884FF03A
:10244000000080F3148862B661B6BFF34F8FBFF30C
:102450006F8F00DF00BF00BF08ED00E0DFF80C0069
:10246000016841F470010160704700BF88ED00E031
:10247000EFF30980BFF36F8F134B1A681EF0100F34
:1024800008BF20ED108A20E9F04F106009B44FF02A
:10249000200080F31188BFF34F8FBFF36F8F2AF0B6
:1024A0009FFE4FF0000080F3118809BC196808688E
:1024B000B0E8F04F1EF0100F08BFB0EC108A80F3A8
:1024C0000988BFF36F8F7047D0000020EFF30580BD
:1024D0007047000072B63A483A4901600A6882F3D0
:1024E00008883948804762B638480047FEE7FEE76B
:1024F000FEE7FEE7FEE7FEE7FEE7FEE7FEE734481D
:1025000000473448004734480047344800473448BF
:1025100000473448004734480047344800473448AF
:10252000004734480047344800473448004734489F
:10253000004734480047344800473448004734488F
:10254000004734480047344800473448004734487F
:10255000004734480047344800473448004734486F
:10256000004734480047344800473448004734485F
:10257000004734480047344800473448004734484F
:10258000004734480047344800473448004734483F
:10259000004734480047344800473448004734482F
:1025A000004734480047344800473448004734481F
:1025B000004734480047344800473448004700008B
:1025C00008ED00E0002000608DBF00600124006085
:1025D000BB250060BB250060BB250060BB250060FB
:1025E000BB250060BB250060BB250060BB250060EB
:1025F000BB250060BB250060BB250060BB250060DB
:10260000BB250060BB250060BB250060BB250060CA
:10261000BB250060FD9D0060E99E0060059F006095
:10262000219F00603D9F0060599F0060759F006082
:10263000919F0060BD960060CD960060DD960060C1
:10264000BB250060BB250060BB250060BB2500608A
:10265000BB250060BB250060BB250060BB2500607A
:10266000BB250060BB250060BB250060BB2500606A
:10267000BB250060BB250060BB250060BB2500605A
:10268000BB250060D1560060BB250060BB25006003
:102690002DE9F05F0546002092469B468846064697
:1026A000814640241BE0284641464746224600F02A
:1026B000DBF953465A46C01A914110D311461846C9
:1026C000224600F0C2F92D1A67EB01084F46224658
:1026D0000120002100F0B9F917EB00094E41201E3E
:1026E000A4F10104DFDC484631462A464346BDE8F2
:1026F000F09F2DE9F0410024061B254671F10006EC
:1027000005DA01240027D0EB070067EB0101161E54
:1027100073F1000605DA0027D2EB0702012567EB0B
:102720000303FFF7B5FF86460E4617469C46AC42AC
:1027300004D00025D0EB050E65EB010624B1002086
:10274000D2EB000760EB030C704631463A46634615
:10275000BDE8F08110B5441A0346944209D28418AA
:10276000114403E011F8013D04F8013D521EF9D275
:1027700010BD40EA0104A40703D009E010C9121FEC
:1027800010C3042AFAD203E011F8014B03F8014BFD
:10279000521EF9D210BDD2B201E000F8012B491E41
:1027A000FBD270470022F6E710B513460A460446EE
:1027B0001946FFF7F0FF204610BD421C10F8011B20
:1027C0000029FBD1801A704710B5002200E0521C8E
:1027D000835C8C5CA34201D1002BF8D1D8B2E1B26A
:1027E000401A10BD30B504460020034600E05B1CD3
:1027F000934203D2E05CCD5C401BF8D030BD034671
:1028000011F8012B00F8012B002AF9D11846704766
:1028100070B50F4D00B92868002412E00A4602E0A6
:102820009E4203D0521C1378002BF9D1DAB2224316
:1028300005D02BB124B1002100F8011B04E00446AF
:10284000401C0678002EE9D12860204670BD0000AB
:10285000340400200FB400B58DB010A909900B907E
:1028600000914FF0FF300A9000200C900548069030
:10287000054807906A4609A80F9900F019F90DB0AC
:102880005DF814FBCD2A0060EB2A00602DE9FF5FA4
:102890001D464FF0FF3BD5E9014691465F464FF09C
:1028A0000008A9697F1C01988847296A82468847E1
:1028B0000028F6D1BAF1FF3F0CD024F4C064002EFA
:1028C00019DD600614D5BAF12B0F09D0BAF12D0F1E
:1028D0000ED103E0584604B0BDE8F09F44F4806494
:1028E000A9697F1C01988847761E8246002E02DD6A
:1028F000BAF1300F03D0B9F1000F26D032E0A96948
:10290000761E44F400747F1C019888478246002E8E
:1029100005DDBAF1780F06D0BAF1580F03D0B9F13E
:10292000000F10D01EE0B9F1000F02D0B9F1100F66
:1029300018D1A969761E24F400747F1C0198884779
:102940008246102002E0082000E00A20814609E0CB
:1029500008FB0908A969761E44F400747F1C0198DD
:1029600088478246002E05DD4946504600F08CF827
:102970000028EDDAE96901988847A00502D46FF0D4
:102980000100A8E7E00725D1600613D5600502D550
:10299000C8F1000000E0404629680A1D2A60096865
:1029A000220501D5087015E0220701D5088011E045
:1029B00008600FE02868011D29600068210502D524
:1029C00080F8008006E0210702D5A0F8008001E031
:1029D000C0F8008038467EE73EB5CA17CB0F00240A
:1029E00050405140C0186141DA0740F2334300942F
:1029F000CDE901232246234600F097F803B030BD0D
:102A000070B5C1F30A5201F000450024C1F313016F
:102A100040F2FF3341F480119A4202DA002001466D
:102A200070BD40F233439A42A2F2334203DC524279
:102A300000F01AF801E000F008F82C43F0D0002371
:102A4000D0EB030063EB010170BD202A04DB203AC8
:102A500000FA02F1002070479140C2F1200320FAF1
:102A600003F3194390407047202A04DB203A21FAEF
:102A700002F00021704721FA02F3D040C2F1200297
:102A800091400843194670473A2800D2303820F068
:102A90002002412A01D3A2F13700884201D34FF02E
:102AA000FF30704702681144137801601846704780
:102AB000D16004495161044911620021116111463C
:102AC00000F0B0B8A52A0060192C0060426842B13D
:102AD000016811F8013B23B1521EC0E900121846EB
:102AE00070470121C160881E704742685AB1C368AF
:102AF000016843B983688B4205D0491E521CC0E966
:102B00000012002070474FF0FF30704710B5141EC0
:102B100073F1000408DA401C41F1000192185B4196
:102B20001A4301D120F0010010BD2DE9F04D92466D
:102B30009B4611B1B1FA81F202E0B0FA80F2203284
:102B40009046FFF782FF04460F4640EA0A0041EA3A
:102B50000B0153465A46084313D0114653EA01006D
:102B600019D0C8F140025046FFF77EFF05460E46D9
:102B7000504659464246FFF768FF084305D00120FA
:102B800004E020463946BDE8F08D0020054346EAC2
:102B9000E0762C4337430A986305E40AA0EB08006B
:102BA0000022FD0A44EA47540A3002D500200146BB
:102BB000E9E7010510196941DDE908450019694196
:102BC000BDE8F04DA2E770B521F0004303430CD0FF
:102BD000C1F30A550024D5EB040564EB0403D617B2
:102BE000AD1AB34102DB0020014670BD201841EB55
:102BF000025170BD064C074D06E0E06840F001034D
:102C000094E8070098471034AC42F6D3FFF7FCFB7A
:102C100088230360B8230360C0B24FF4F05100F082
:102C200097B900002DE9F34F8BB04FF0000801F188
:102C30000C000C464FF0010B46460DF1080A0190BE
:102C40006269012101989047051E2DD0252D2CD0B9
:102C5000216A8847C0B16269012101989047216AC1
:102C600088470028F7D1411E62690198904700E02B
:102C7000761CA1690B988847216A88470028F7D1FC
:102C8000E1690B988847DBE7A1690B9888470746FD
:102C9000A84201D1761CD3E7E1690B9888477F1CD5
:102CA00002D1B8F1000F6FD046E1002762693D46BE
:102CB0003946019890472A2804D162690121019878
:102CC00090470125DFF884926269012101989047BD
:102CD000A0F130010A290AD24F45E5DC07EB870154
:102CE00000EB4107303FDFD445F01005ECE7E90683
:102CF00001D46FF000476C280AD04C2814D0682803
:102D000015D06A280DD074281CD07A281AD01DE05E
:102D100062690121019890476C2802D045F00405B2
:102D200014E045F002050DE045F020050AE0626977
:102D3000012101989047682802D045F0080505E078
:102D400045F400656269012101989047C4E9015783
:102D500065283DD019DC58287AD00CDC452837D0BE
:102D600004DC252826D0412831D131E046282FD057
:102D700047282CD12CE05B2877D0612828D0632805
:102D80007CD0642823D15AE0D0E06F2848D008DCFA
:102D900066281DD067281BD0692821D06E2816D13F
:102DA00027E0702845D0732868D0752847D0782848
:102DB0000DD14DE0A1690B988847054625283FF4C1
:102DC00069AFE1690B9888476D1C3FF46AAFB3E0C7
:102DD00023466A466FF001000B99AFF300809EE036
:102DE00045F040006060A80723464FF0000236D44B
:102DF0003EE0E8077FF447AF2068011D21600068CE
:102E0000290501D506701BE7290701D5068017E7BC
:102E1000A90703D5F117C0E9006111E706600FE7C4
:102E200045F040006060A80723464FF0080216D422
:102E30001EE040F60E0125EA0100606016E045F054
:102E400040006060A80723464FF00A0207D40FE055
:102E500045F040006060A80708D5234610226FF0B7
:102E600001000B99AFF3008059E007E023461022E0
:102E70006FF001000B99FFF709FD50E04FF00009DA
:102E80004F464B46632802D05B2806D040E0E80658
:102E900001D40120A06001273AE062690121019874
:102EA00090475E2805D14FF00109626949460198B3
:102EB0009047216939B900210A46534643F8212039
:102EC000491C0829FADBB0B3216969B9C11700EBC5
:102ED000D16253110AEB830122F01F02821A0120F2
:102EE0000B68904003430B60626901210198904791
:102EF0005D28E8D1B9F1000F09D00020514651F802
:102F00002020D24341F82020401C0828F7DB02ABE8
:102F1000224600976FF001000B99AFF30080002864
:102F20000CDA401C08D1BBF1000F05D04FF0FF3088
:102F30000DB0BDE8F08FFFE74046F9E7E90701D1A2
:102F400008F1010806444FF0000B79E6CCCCCC0C1C
:102F50007F2801D9002208E0064A02EB5002C00790
:102F6000127800D1120902F00F02012090400840AF
:102F700070470000380B036070B58C1810F8015BC7
:102F800015F0070301D110F8013B2A1106D110F802
:102F9000012B03E010F8016B01F8016B5B1EF9D106
:102FA0002B0705D40023521E0DD401F8013BFAE78C
:102FB00010F8013BCB1A921C03E013F8015B01F8F7
:102FC000015B521EF9D5A142D8D3002070BD00008C
:102FD0002DE9F05F04460027BA460026B046601D82
:102FE00008F0B0FF08B9BDE8F09F28A0D4F8901011
:102FF0008847607928B900221146204605F0E8FB91
:10300000F1E700272DE0224850F827A0DAF80090D9
:10301000601D08F097FF83465A464946601D08F038
:103020005BFCD8B956B9C846404608F08BFF064647
:10303000494618A0D4F89020904710E0404608F088
:1030400081FF83465A464946404608F045FC0546FE
:10305000002D00DA6D42B54200DA2E4600BF781C22
:10306000C7B20B4890F85000B842CCDCB8F1000F62
:1030700004D032464146601D08F043FC621D07A0A3
:10308000D4F890302168984700BFACE70D0A0000E3
:1030900050AE012025730D0A000000002573257332
:1030A0000000000010B54FF400409449086000BFD4
:1030B00093489449086000BF0121934801F080FBC8
:1030C0000121924801F07CFB9148C06820F01F006C
:1030D00040F012008E49C86000BF8D48006800F0C3
:1030E0000040B0F1004FF8D18A4801F02BFA8A482D
:1030F00001F052FA8948006F40F400508749086790
:103100008648A030006840F40050C1F8A00008468E
:10311000D0F8E00040F40050C1F8E0000846D0F8D4
:10312000E00040F40010C1F8E0000021764801F012
:1031300047FB00217A4801F097FA0021734801F01B
:103140003FFB0021774801F08FFA0321764801F018
:103150008BFA0121754801F087FA0321744801F0C8
:103160002FFB0121734801F07FFA0021724801F022
:1031700027FB0021714801F023FB0121704801F079
:1031800073FA00216F4801F01BFB01216E4801F02A
:103190006BFA00216848F83001F012FB0121664803
:1031A000083801F00DFB01214FF2140001F05CFA28
:1031B0000021664801F004FB01216148183001F04C
:1031C00053FA0221624801F0FBFA04215448FC380A
:1031D00001F04AFA02215F4801F0F2FA02215E484A
:1031E00001F042FA00215948E03001F0E9FA0321E8
:1031F0005A4801F039FA01214E480C3001F034FAF6
:1032000000214148001D01F0DBFA03215348001D55
:1032100001F02AFA01214748103001F025FA002177
:103220004C48001D01F0CCFA03214D4801F01CFA76
:1032300001214C4801F018FA00214B4801F0C0FA76
:1032400000214A4801F010FA022137480C3001F001
:10325000B7FA0121464801F007FA00213648083044
:1032600001F0AEFA00213348083001F0FDF90521E4
:103270003548EC3801F0A4FA01213E4801F0F4F998
:1032800003213748F03001F0EFF903213A4801F00B
:1032900097FA0121394801F0E7F907213048083051
:1032A00001F0E2F903212048E43801F089FA012114
:1032B0003048083801F0D8F90721314801F0D4F935
:1032C0000321304801F07CFA01212D48083801F033
:1032D000CBF907212948083801F0C6F900212A480E
:1032E00001F06EFA0D48D0F8600120F01F00274968
:1032F000086027482749086010BD0000A000002092
:1033000000366E019C000020186C008014390014F7
:1033100000000840A4ED0260A8ED026000800D40AE
:1033200014FB008014EA00041468008010E00040E0
:10333000187200801CE007801C2600801C30008072
:1033400024EB00801C31008024F000803C69008068
:1033500018640080186E00802479008028E60080C0
:1033600028F6008028F007803832008038F3078084
:1033700020E2078038EC00803074008030F9008053
:1033800030E90080207300800C20008060810D40B7
:103390000046C323CC00002010B56148006800F44B
:1033A0000030B0F5003F2BD100BF00BF00BF00BF11
:1033B00000BFBFF34F8F00BF00BF00BF00BF00BF03
:1033C00000BFBFF36F8F00BF00BF00BF544800684D
:1033D00020F400305249086000205249086000BFC4
:1033E00000BF00BFBFF34F8F00BF00BF00BF00BFD3
:1033F00000BF00BFBFF36F8F00BF00BF00BF00BFA3
:103400004748006800F48030B0F5803F01D107F0F4
:1034100043FC00BF00BF00BF00BF00BFBFF34F8F22
:1034200000BF00BF00BF00BF00BF00BFBFF36F8F72
:1034300000BF00BF00BF3A481030006820F4803061
:1034400037491031086036488030006820F00100AC
:1034500033498031086000BF334831498831086002
:103460003248091D08603248091F08602F48801C37
:10347000091D08602F48091F08602F48091D0860B2
:103480001320091F08602948801C091D08601420AA
:10349000091F086028481838091D08602748091FB7
:1034A000086025481838091D08602548091F08606C
:1034B00021481638091D08601D48801D091F086035
:1034C0001D480838091D08601E48091F08601E486D
:1034D000091D0860042000BF00BF00BF00BFBFF38C
:1034E0004F8F00BF00BF00BF00BF00BF00BFBFF3D2
:1034F0006F8F00BF00BF00BF40F00101084A80325B
:10350000116007491031096841F48031044A1032D2
:10351000116000BF07F05EFC07F0E8FC10BD000082
:1035200014ED00E050EF00E0100000C0390010037F
:103530001100008012000060390003031500002014
:10354000160020201800E0812900080370B51648F5
:10355000C1B2164A8958C0F34C32C0F304239A40D2
:103560001140C0F30422D14061B9114800F068FE57
:103570000621B0FBF1F50F4800F024FD401CB5FB1F
:10358000F0F40FE000BF0C48006800F0100008B134
:103590000A4D01E00A480568064800F013FD401C8A
:1035A000B5FBF0F4204670BD2426008000C00F401B
:1035B0000D00100024E0078070820D4000366E017F
:1035C0009C0000201CB540F2024000F07BFC002073
:1035D000724903460246CDE900100521704805F006
:1035E0003FF900206D49091D03460246CDE9001050
:1035F00005216B48001D05F033F901206749403172
:103600000346684ACDE9001003216548403005F0C3
:1036100027F90120614944310346624A121DCDE970
:10362000001003215E48443005F01AF900205B4980
:10363000F03101235B4AA83ACDE900100221584835
:10364000F03005F00DF9002054495431034602468C
:10365000CDE9001004215248543005F001F9002052
:103660004E49583101234F4AA43ACDE900100421B4
:103670004B48583005F0F4F8002048495C310123EC
:10368000484AAC3ACDE90010042145485C3005F0C9
:10369000E7F80020414960310346424AB03ACDE99B
:1036A000001004213E48603005F0DAF800203B4964
:1036B000643103463B4AB43ACDE90010042138484E
:1036C000643005F0CDF80020344968310346354AAE
:1036D000B83ACDE9001004213148683005F0C0F84F
:1036E00000202E496C3103462E4ABC3ACDE9001029
:1036F00004212B486C3005F0B3F8002027497031C5
:103700000346284AC03ACDE900100421244870300D
:1037100005F0A6F80020214974310346214AC43A35
:10372000CDE9001004211E48743005F099F80020FE
:103730001A49783103461B4AC83ACDE900100421E2
:103740001748783005F08CF8002014497C31034686
:10375000144ACC3ACDE90010042111487C3005F020
:103760007FF84DF6B0000D49403101230D4ACDE9F7
:10377000001003210A48403005F052F84DF6B00021
:10378000064944310123074A121DCDE900100321E7
:103790000348443005F044F81CBD0000AC821F40D3
:1037A000BC801F40CC841F4010B588B001A806F033
:1037B00075F842F21070039001208DF806008DF824
:1037C00007000121174800F0A5FF0021164800F06E
:1037D000F5FE00BF1548006800F0100008B114485D
:1037E00001E014480068044600BF224601A91248BF
:1037F00006F07AF80021114800F08CFF00211048F3
:1038000000F0DCFE0F48006800906A4600210E4878
:1038100002F038FF6A4601210B4802F033FF08B07E
:1038200010BD00003832008038F3078070820D40F0
:1038300000366E019C00002000003F403C69008083
:103840003CEB0080E4EA026000801B401CB540F2C3
:10385000024000F0BFFA0020B14903460246CDE91C
:1038600000100521AF4804F0E1FF0020AC49091D1C
:1038700003460246CDE900100521AA48001D04F0C8
:10388000D5FF0020A6490C3103460246CDE90010C1
:103890000221A4480C3004F0C9FF0020A0491031D7
:1038A00003460246CDE9001002219E48103004F084
:1038B000BDFF00209A49C83101239B4ACDE9001081
:1038C00003219848C83004F0B1FF00209449AC317E
:1038D0000123954A0C3ACDE9001003219148AC3000
:1038E00004F0A4FF00208E49B03101238E4A083A2B
:1038F000CDE9001003218B48B03004F097FF002081
:103900008749B4310123884A121FCDE900100321F1
:103910008448B43004F08AFF00208149B83103465E
:103920000246CDE9001003217E48B83004F07EFF46
:1039300000207D49B43903460246CDE90010032139
:103940007848BC3004F072FF00207749B039034654
:103950000246CDE9001003217248C03004F066FF32
:1039600001207149AC3903466F4A143ACDE9001081
:1039700006216C48C43004F059FF002068492C31FE
:1039800003460246CDE90010012166482C3004F0C0
:103990004DFF0020644998390223634A103ACDE96B
:1039A000001001465F48D83004F040FF4BF2A900F8
:1039B0005B4900231A46CDE900100521594804F05F
:1039C00023FF4BF2A9005649091D00231A46CDE9F1
:1039D000001005215348001D04F016FF41F2B0000D
:1039E0004F490C3100231A46CDE9001002214D4801
:1039F0000C3004F009FF41F2B000494910310023B6
:103A00001A46CDE9001002214648103004F0FCFEB1
:103A10004BF2E9004249AC310123434A0C3ACDE96B
:103A2000001003213F48AC3004F0EEFE4BF2E900F9
:103A30003B49B03101233C4A083ACDE9001003214B
:103A40003848B03004F0E0FE4BF2E9003449B431BC
:103A50000123354A121FCDE9001003213148B4304B
:103A600004F0D2FE4BF2E9002D49B83100231A468A
:103A7000CDE9001003212B48B83004F0C5FE4BF20D
:103A8000E9002949B43900231A46CDE90010032181
:103A90002448BC3004F0B8FE4BF2E9002249B039AA
:103AA00000231A46CDE9001003211E48C03004F05F
:103AB000ABFE31201C49AC3901231B4A143ACDE935
:103AC000001006211748C43004F09EFE4BF2E900B6
:103AD0001549A8390123144ACDE9001003211148E2
:103AE000C83004F091FE4BF2E9000D492C3100235F
:103AF0001A46CDE9001001210A482C3004F084FE5A
:103B00004BF62900084998390223074A103ACDE9B3
:103B1000001000210348D83004F076FE1CBD0000E0
:103B2000D0821F40E0801F4040841F4008B50348FA
:103B300000680090684600F017FD08BDC8EA026002
:103B400010B504462CB101220021054802F010FEF8
:103B500004E000221146024802F00AFE10BD0000F7
:103B600000801B4010B504462CB1012211460548C7
:103B700002F0FEFD04E000220121024802F0F8FDFF
:103B800010BD000000801B4070B504460D46606803
:103B9000294642692046904770BD00002DE9F0415A
:103BA00004460E46270A04F01F08062F00D805E039
:103BB00040F2753208A111A00CF096FF124800EBFC
:103BC00087052868032101FA08F1884306FA08F1FD
:103BD00008432860BDE8F0812E2E5C2E2E5C6C69B7
:103BE000627261726965735C647269766572735C36
:103BF00066736C5F636C6F636B2E6800696E6465DF
:103C000078203C3D2036000068C00F402DE9F0418F
:103C100004460E46270A04F01F08062F00D805E0C8
:103C200040F2753208A111A00CF05EFF124800EBC3
:103C300087052868032101FA08F1884306FA08F18C
:103C400008432860BDE8F0812E2E5C2E2E5C6C6946
:103C5000627261726965735C647269766572735CC5
:103C600066736C5F636C6F636B2E6800696E64656E
:103C700078203C3D2036000068C00F402DE9F0411F
:103C800004460E46270A04F01F08062F00D805E058
:103C900040F2753208A111A00CF026FF124800EB8B
:103CA00087052868032101FA08F1884306FA08F11C
:103CB00008432860BDE8F0812E2E5C2E2E5C6C69D6
:103CC000627261726965735C647269766572735C55
:103CD00066736C5F636C6F636B2E6800696E6465FE
:103CE00078203C3D2036000068C00F402DE9F041AF
:103CF00004460E46270A04F01F08062F00D805E0E8
:103D000040F2753208A111A00CF0EEFE124800EB53
:103D100087052868032101FA08F1884306FA08F1AB
:103D200008432860BDE8F0812E2E5C2E2E5C6C6965
:103D3000627261726965735C647269766572735CE4
:103D400066736C5F636C6F636B2E6800696E64658D
:103D500078203C3D2036000068C00F402DE9F04738
:103D60000446254603274FEA152805F01F09B8F138
:103D7000060F00D805E040F2753209A111A00CF041
:103D8000B3FE134800EB88063068032101FA09F1FD
:103D9000884307FA09F10843306000BFBDE8F087A7
:103DA0002E2E5C2E2E5C6C69627261726965735C8A
:103DB000647269766572735C66736C5F636C6F6363
:103DC0006B2E6800696E646578203C3D20360000EB
:103DD00068C00F402DE9F0470446254603274FEA07
:103DE000152805F01F09B8F1060F00D805E040F2CC
:103DF000753209A111A00CF077FE134800EB88067C
:103E00003068032101FA09F1884307FA09F10843F0
:103E1000306000BFBDE8F0872E2E5C2E2E5C6C69F2
:103E2000627261726965735C647269766572735CF3
:103E300066736C5F636C6F636B2E6800696E64659C
:103E400078203C3D2036000068C00F402DE9F04747
:103E50000446254603274FEA152805F01F09B8F147
:103E6000060F00D805E040F2753209A111A00CF050
:103E70003BFE134800EB88063068032101FA09F184
:103E8000884307FA09F10843306000BFBDE8F087B6
:103E90002E2E5C2E2E5C6C69627261726965735C99
:103EA000647269766572735C66736C5F636C6F6372
:103EB0006B2E6800696E646578203C3D20360000FA
:103EC00068C00F402DE9F0470446254603274FEA16
:103ED000152805F01F09B8F1060F00D805E040F2DB
:103EE000753209A111A00CF0FFFD134800EB880604
:103EF0003068032101FA09F1884307FA09F1084300
:103F0000306000BFBDE8F0872E2E5C2E2E5C6C6901
:103F1000627261726965735C647269766572735C02
:103F200066736C5F636C6F636B2E6800696E6465AB
:103F300078203C3D2036000068C00F402DE9F04756
:103F40000446254603274FEA152805F01F09B8F156
:103F5000060F00D805E040F2753209A111A00CF05F
:103F6000C3FD134800EB88063068032101FA09F10C
:103F7000884307FA09F10843306000BFBDE8F087C5
:103F80002E2E5C2E2E5C6C69627261726965735CA8
:103F9000647269766572735C66736C5F636C6F6381
:103FA0006B2E6800696E646578203C3D2036000009
:103FB00068C00F4010B5044603212046FFF796FE67
:103FC00010BD00000146C8B2054A8058C1F34C320A
:103FD000C1F304239A401040C1F30422D04070473B
:103FE00000C00F4070B50546162D6ED2DFE805F013
:103FF0000B0C1635464A4F54595E63686E73787DD4
:1040000082878C91979C00BF00F0B6F84B494969B4
:10401000C1F38221491CB0FBF1F48CE047484069B0
:1040200000F0400070B14548406900F0800020B1C8
:10403000012000F051FA044607E0022000F016FAD1
:10404000044602E000F098F804463C484069C0F39A
:104050000240401CB4FBF0F46DE000F08DF83749ED
:104060004969C1F38221491CB0FBF1F4334840692E
:10407000C0F30120401CB4FBF0F45CE000F06CF8ED
:10408000044658E000BF4FF4004400BF53E00D2049
:1040900000F0D6F804464EE0294800F0D1F8044676
:1040A00049E0002000F018FA044644E0012000F046
:1040B00013FA04463FE0022000F00EFA04463AE00C
:1040C000032000F009FA044635E032E01D4800F014
:1040D000B7F804462FE01C4800F0B2F804462AE086
:1040E000002000F0C3F9044625E0012000F0BEF9ED
:1040F000044620E0022000F0B9F904461BE003204A
:1041000000F0B4F9044616E0104800F099F80446AF
:1041100011E00E48083000F093F804460BE00C481C
:1041200000F08EF8044606E00A4800F089F80446DC
:1041300001E0002400BF00BF204670BD00C00F405A
:104140000D0010000D0020000D0030000D00E000FB
:104150000D0070000D00A0000448006800F0100081
:1041600008B10348704703480068FBE770820D40C0
:1041700000366E019C00002010B52E48406900F00A
:10418000007040B32B48806900F4405048B1B0F54E
:10419000805F0BD0B0F5005F0CD0B0F5405F0ED162
:1041A0000EE0254800F04CF804460BE0FFF7D4FF82
:1041B000044607E0214800F043F8044602E000BF4F
:1041C000002400BF00BF1B484069C0F3C260401C10
:1041D000B4FBF0F42BE01748806900F4402048B1AC
:1041E000B0F5802F0BD0B0F5002F0DD0B0F5402FDB
:1041F0001AD10EE0114800F023F8044616E0022020
:1042000000F034F9044611E0002000F02FF90446D4
:104210000CE00D2000F014F80649096901F00701CF
:10422000491CB0FBF1F401E0002400BF00BF2046B0
:1042300010BD000000C00F400D0010000D00300048
:104240002DE9FF478146834BD3E90020D3E90213D0
:1042500001AC0BC4009280494846C0F30B428A5817
:1042600000F01F070123BB401A400AB1012200E001
:1042700000221AB9002004B0BDE8F087764FC84686
:10428000C8F30B403858C0F3813010B9FFF764FF12
:1042900000E0002004467048C9F30B414158C1F3C7
:1042A000004109B12046E6E76C49A9EB01008945C8
:1042B00045D00DDCB9F10D0F16D0A9F580100D38E1
:1042C00090B3B0F5801F70D0B0F5001F6ED112E032
:1042D000B0F5401F6DD0B0F5E00F69D0A0F5E0005B
:1042E00008380028F2D1A3E05B48006800F07F00A6
:1042F00060434408AAE05848D0F860C0006DA4FBB1
:104300000071624600233846FEF7C2F9054652485E
:10431000006B00F0010010B11620444302E004EBF2
:10432000840084002C4491E0FFE74B48006900F0D2
:10433000020008B1162000E01420444386E04648FD
:10434000006F00F07F0A44489030D0F800C0424827
:10435000D0F88000A4FB0070014662460023384676
:10436000FEF796F9054604FB0A543B48006F00F43B
:10437000C01018B1B0F5002F04D101E0A40802E08C
:10438000640800E000BF00BF3548006835490840B8
:10439000B0F5004F04D04942084418B9A40802E01F
:1043A000640800E000BF00BF50E043E04CE000E0E4
:1043B00036E02948A030006800F07F0A2648D0F88F
:1043C000C0C0B0300068A4FB007001466246002304
:1043D0003846FEF75DF9054604FB0A541E48D0F83E
:1043E000A00000F4C01018B1B0F5002F04D101E016
:1043F000A40802E0640800E000BF00BF184800689D
:1044000000F04040B0F1404F03D0B0F1804F04D1F4
:1044100001E0A40802E0640800E000BF00BF15E06E
:104420000F489038006800F0030A5DF82A400DE05C
:104430000D4C0BE00848006A00F0020008B116209D
:1044400000E01420444301E0002400BF00BF2046E8
:1044500011E70000ECEC026000800D400D007000E0
:1044600070810D400080800040787D0170B5054668
:104470001748FFF7E5FE044635B1012D0BD0022D9C
:1044800010D0032D1CD114E01248006800F03F004A
:10449000B4FBF0F416E00F480068C0F30520B4FB4D
:1044A000F0F40FE00B480068C0F30540B4FBF0F4F3
:1044B00008E008480068C0F30560B4FBF0F401E0D0
:1044C000002400BF00BF04EBC4004400204670BDC0
:1044D0000D00300000810D4070B505461748FFF70C
:1044E000AFFE044635B1012D0BD0022D10D0032DA7
:1044F0001CD114E01248006800F03F00B4FBF0F457
:1045000016E00F480068C0F30520B4FBF0F40FE09C
:104510000B480068C0F30540B4FBF0F408E008481D
:104520000068C0F30560B4FBF0F401E0002400BFB4
:1045300000BF04EBC4004400204670BD0D00100015
:10454000F0800D40017801F07F0141F40051054AEF
:10455000116000BF0349096801F000410029F9D04A
:104560007047000000800D40827802F0030102785D
:104570000AB141F4005142780AB141F40011054AF0
:10458000116000BF034A126802F00042002AF9D00D
:1045900070470000E0800D40017801F0010141F416
:1045A0000051054A116300BF0349096B01F0004146
:1045B0000029F9D07047000000800D4070B5044616
:1045C0000E463F2000EA9465E0B215494158C4F315
:1045D0004C30C4F30422904021EA0000C4F30422CA
:1045E00006FA02F1C4F34C32C4F304239A4011409A
:1045F0000843E1B20A4A8850202D00D805E040F275
:10460000533208A110A00CF06FFA202D07D000BF84
:104610000348806C0121A94008400028F8D170BDF2
:1046200000C00F402E2E5C2E2E5C6C69627261728F
:104630006965735C647269766572735C66736C5FDE
:10464000636C6F636B2E680062757379536869667B
:1046500074203C3D2043434D5F4E4F5F42555359BC
:104660005F5741495400000070B504460E463F2094
:1046700000EA9465E0B215494158C4F34C30C4F3E4
:104680000422904021EA0000C4F3042206FA02F159
:10469000C4F34C32C4F304239A4011400843E1B2FE
:1046A0000A4A8850202D00D805E040F2533208A174
:1046B00010A00CF019FA202D07D000BF0348806C21
:1046C0000121A94008400028F8D170BD00C00F406A
:1046D0002E2E5C2E2E5C6C69627261726965735C51
:1046E000647269766572735C66736C5F636C6F632A
:1046F0006B2E6800627573795368696674203C3D5F
:104700002043434D5F4E4F5F425553595F574149D8
:104710005400000070B504460E463F2000EA946540
:10472000E0B215494158C4F34C30C4F30422904020
:1047300021EA0000C4F3042206FA02F1C4F34C3269
:10474000C4F304239A4011400843E1B20A4A885056
:10475000202D00D805E040F22E3208A110A00CF068
:10476000C3F9202D07D000BF0348806C0121A94068
:1047700008400028F8D170BD00C00F402E2E5C2EDE
:104780002E5C6C69627261726965735C64726976D1
:104790006572735C66736C5F636C6F636B2E68002D
:1047A000627573795368696674203C3D2043434DBC
:1047B0005F4E4F5F425553595F57414954000000C7
:1047C00070B504460E463F2000EA9465E0B21549F4
:1047D0004158C4F34C30C4F30422904021EA000055
:1047E000C4F3042206FA02F1C4F34C32C4F30423E6
:1047F0009A4011400843E1B20A4A8850202D00D85F
:1048000005E040F22E3208A110A00CF06DF9202D29
:1048100007D000BF0348806C0121A9400840002850
:10482000F8D170BD00C00F402E2E5C2E2E5C6C693E
:10483000627261726965735C647269766572735CD9
:1048400066736C5F636C6F636B2E6800627573795F
:104850005368696674203C3D2043434D5F4E4F5F73
:10486000425553595F574149540000002DE9F04724
:1048700081460C4615461E46B046D8F80870786A40
:1048800078B140F65730854201D1002500E001257E
:10489000207DE17D884204D029464046D7E909328F
:1048A0009847BDE8F08710B504462168086800F015
:1048B000CDF8002010BD000070B504460D464FF045
:1048C000FF310748006829F0AFFC012806D12268B3
:1048D000A16810682A4600F0EBFA70BD0520FCE7DD
:1048E000980000202DE9FF4705460C4617469846DC
:1048F000D5F80090AE68684600F000F920798DF890
:104900000800A07B18B91020ADF80C0011E0A07BC6
:10491000012803D10020ADF80C000AE0A07B02289A
:1049200003D14002ADF80C0003E0042004B0BDE860
:10493000F087A089ADF80A0000208DF80E00012054
:104940008DF80F00A068000CADF80200208980B23D
:10495000ADF8000000200190207C00F0010018B1AB
:10496000019840F400600190207C00F002000228D1
:1049700003D1019840F002000190207C00F0040077
:10498000042803D0019840F4003001906946D9F81A
:10499000000000F029F97762C6F828800021042081
:1049A00029F000F9044908602B46044A3146D9F839
:1049B000000000F007FAB9E7980000206D48006099
:1049C0002DE9F04105460E4690461C46069F3B46A3
:1049D000224631462846FFF785FFBDE8F08110B535
:1049E00004462268A168106800F0F4FA10BD10B502
:1049F00004462268A168106800F03AFB10BD70B54B
:104A000004460D462268A16810682A4600F062FB41
:104A100070BD10B50A460021036823F48074046059
:104A200002F001040CB141F0200102F002040CB1CB
:104A300041F0400123F480740C43046000BF04681B
:104A40000C40002CFBD1036010BD000070B5054682
:104A5000284600F0AAF9284600F084F806460448E3
:104A600030F9164000212046FFF708F900BF70BD5D
:104A700078ED026002680B0C1B049A4302608268A6
:104A8000CBB29A438260826C01F47F4322EA931294
:104A90008264704710B5034801680348034A1268EE
:104AA000904710BDBC00002000C02B40C00000207B
:104AB00010B50B46002103F001040CB141F4805104
:104AC00003F002040CB141F400611AB184680C4394
:104AD000846002E084688C43846010BD02680B0C23
:104AE0001B041A4302608268CBB21A438260826C54
:104AF00001F47F4342EA93128264704710B5044682
:104B000004B105E04FF4A8720BA114A00BF0ECFF68
:104B10004FF4A0702080F020608040F602006060BA
:104B2000022020724FF4207060811020A0810020AC
:104B3000A0730120E07310BD2E2E5C2E2E5C6C69DC
:104B4000627261726965735C647269766572735CC6
:104B500066736C5F6373692E63000000636F6E663B
:104B60006967000070B50546002406E0094850F862
:104B70002400A84200D102E0641C002CF6D000BF43
:104B800004B904E08A2204A10CA00BF0ADFF20467A
:104B900070BD000074ED02602E2E5C2E2E5C6C69E0
:104BA000627261726965735C647269766572735C66
:104BB00066736C5F6373692E63000000696E7374C3
:104BC000616E6365203C2041525241595F53495AFE
:104BD0004528735F63736942617365732900000040
:104BE00010B5FFF757FF10BD2DE9F04704460D46FD
:104BF00005B104E0C32237A13FA00BF075FF288860
:104C0000297A00FB01F606F00700A97A01F00701F6
:104C1000084310B10420BDE8F0872046FFF7A2FF4B
:104C20008046374830F9189003214846FFF726F8A8
:104C300000BF204600F07EF8A8896968084340F468
:104C40008077E87B08B147F080472760287A0428FE
:104C500009D1A06840F00400A0606888298840EA73
:104C60000140606303E0688840EA06406063688949
:104C7000801BC0082063A06840F00100A06006F01F
:104C80007F0050B94FF0404060601E48806820F0BF
:104C9000700040F02000A06015E006F03F0050B921
:104CA0004FF0004060601748806820F0700040F0CE
:104CB0001000A06007E04FF08040606011488068FD
:104CC00020F07000A0600121204600F01DF80020B7
:104CD000A1E700002E2E5C2E2E5C6C696272617260
:104CE0006965735C647269766572735C66736C5F28
:104CF0006373692E63000000636F6E66696700006E
:104D000078ED026000C02B400A46002102F001034A
:104D10000BB141F4804102F002030BB141F40051A8
:104D200083680B43836000BF83680B40002BFBD17B
:104D30007047000070B50446204600F036F80020A9
:104D4000A060A06840F40040A06000BFA06800F42C
:104D500000400028FAD103212046FFF75AFE032124
:104D60002046FFF7D1FFA569A56106482060002015
:104D70006060A0604FF45040A06400202063606336
:104D800070BD00000008004009B1C26200E082620C
:104D9000704710B50446012211462046FFF788FEF1
:104DA000A06C40F00040A06410BD10B50446A06C9B
:104DB00020F00040A064002201212046FFF778FE89
:104DC00010BD00002DE9F04180460C4616461F46F6
:104DD00004B105E040F2C71220A129A00BF084FE27
:104DE00024212046FDF7DEFCE66127624046FFF7FE
:104DF000B9FE0546244941F8254024482449086065
:104E0000244A32F915000521002804DB0A07130E95
:104E1000214A135408E00A074FEA126C1F4A00F0B7
:104E20000F031B1F02F803C000BF1A4931F9150018
:104E300010F1800F00D10EE00146002909DB01F0DE
:104E40001F0301229A404B099B0003F1E023C3F8A2
:104E5000002100BF00BF0020BDE8F0812E2E5C2E97
:104E60002E5C6C69627261726965735C64726976EA
:104E70006572735C66736C5F6373692E6300000018
:104E800068616E646C650000BC000020F94E006033
:104E9000C00000207AED026000E400E018ED00E0C0
:104EA00070B505460C46617DA07D00F01DF870BD13
:104EB0002DE9F04105460C461746207DE17D8842EC
:104EC00003D140F65530BDE8F0812E6826F4C010BD
:104ED0002860207D54F820003860207D00F05EF8C6
:104EE00020752E600020EEE70246914201D3881A19
:104EF0007047501D401AFBE72DE9F04105460C466E
:104F0000AF69AF6107F4C010B0F5C01F20D12846CB
:104F1000FFF74BFF207E012812DBE67D54F82600C8
:104F2000A862207E022809D1304600F037F80646F4
:104F300054F82600E8620020607601E001206076E7
:104F400001212846FFF7E0FE2846FFF722FF23E075
:104F500007F4C01000B3E07D00F020F8E075207E7B
:104F6000401E2076E06930B140F65732214628468F
:104F7000D4E907C3E047207E28B92846FFF715FF8C
:104F80000020E07608E021462846FFF789FF18B1A7
:104F90002146284600F008F8BDE8F0810146481C8B
:104FA000052800D30020704770B505460C46A07D4B
:104FB00054F82020617E2846FFF7E6FEA07DFFF72B
:104FC000EDFFA075207E401C2076607E80F0010001
:104FD000607670BD70B505460C4604B105E04FF42F
:104FE000F17218A120A00BF07FFD21462846FFF7A3
:104FF00057FF0646022E02D240F6543070BD002004
:1050000060762076A86C20F4402040F40020A8644C
:1050100021462846FFF7C8FF21462846FFF7C4FF70
:1050200001212846FFF770FE0120A076E0764FF4BC
:10503000C0112846FFF752FD2846FFF7AAFE0020C0
:10504000DCE700002E2E5C2E2E5C6C6962726172B1
:105050006965735C647269766572735C66736C5FB4
:105060006373692E6300000068616E646C65000004
:1050700070B505460C4604B105E040F206220AA1CF
:1050800012A00BF031FD2846FFF78FFE4FF4C01140
:105090002846FFF7EFFC0020A076E076E07DA075C3
:1050A0000020207670BD00002E2E5C2E2E5C6C69D8
:1050B000627261726965735C647269766572735C51
:1050C00066736C5F6373692E6300000068616E64D1
:1050D0006C6500002DE9F04105460C461746617DE0
:1050E000207DFFF701FF042803D140F65630BDE8CC
:1050F000F0812E6826F4C0102860607D44F820708E
:10510000607DFFF74BFF60752E60A07ED0B1E07E22
:10511000C0B921462846FFF7C3FE022812D301205A
:10512000E0760020607621462846FFF73DFF2146C5
:105130002846FFF739FF01212846FFF7E5FD2846FD
:10514000FFF727FE0020D2E700210448026A517AC7
:105150000A2901D1012070470020FCE760060020E9
:105160002DE9FF4F2DED0A8B87B0834616461F466B
:105170004FF000095D46002005F8010B129890EDF4
:10518000000BB0EE40BBB5EEC0BBF1EE10FA0AD199
:105190003020287009F10109484607B0BDEC0A8BA0
:1051A00004B0BDE8F08F02A8B0EE4B0B0BF0E0FCB2
:1051B000B0EE409B4FF0000A09E000EE106AB8EE36
:1051C000C00B29EE000BB0EE409B0AF1010ABA4574
:1051D000F3D3B5EEC0BBF1EE10FA19DBB6EE000B5F
:1051E00039EE008B00EE107AB8EE401BB2EE040BE5
:1051F0000BF01EFDB4EEC80BF1EE10FA23D89DEDB6
:10520000020BB7EE001B30EE010B8DED020B1AE026
:10521000B6EE000B39EE408B00EE107AB8EE401B74
:10522000B2EE040B0BF004FDB1EE400BB4EEC80B74
:10523000F1EE10FA07DB9DED020BB7EE001B30EE2E
:10524000410B8DED020B4FF0000A2FE000EE106ACB
:10525000B8EEC00B88EE00AB51EC1A0BFDF7D0FB9B
:10526000F317A0FB062C01FB06C100FB0310CDE9E0
:10527000002010460199FDF7AFFB41EC100B38EE12
:1052800040CBBDEECC0B10EE104A002C05DA049496
:10529000049CE04300F1310400E03034B0EE4A8B6E
:1052A00005F8014B09F101090AF1010ABA45CDD30C
:1052B0002E2005F8010B09F101099DED020BBDEE51
:1052C000C00B10EE108AB8F1000F05D1302005F8A0
:1052D000010B09F1010918E014E098FBF6F00590C4
:1052E000059800FB1684002C05DA0494049CE04326
:1052F00000F1310400E03034DDF8148005F8014B92
:1053000009F10109B8F1000FE7D1484645E72DE959
:10531000FF4F89B01E4600200190DDF824B00BF845
:10532000010B0B9800284DD00A98D0E90078002195
:1053300087EA010088EA0101084309D130208BF88F
:1053400000000198401C019001980DB0BDE8F08F5D
:105350002FE03246F31738464146FDF7CAF9CDE94A
:105360000601F317DDE90601A0FB062C01FB06C1CF
:1053700003FB0013B91A68EB0300CDE90410002306
:10538000DDE90410C91A984107DA049CE143491C7D
:105390004FF030000818049002E004983030049078
:1053A000DDE9067804980BF8010B019800F1010083
:1053B00001904FF0000187EA010088EA01010843EB
:1053C000C7D148E00A98D0E9009A002189EA010093
:1053D0008AEA0101084307D130208BF800000198C8
:1053E000401C01900198B0E72DE03246F317484683
:1053F0005146FDF74DF9CDE90201F317DDE9020150
:10540000A0FB062C01FB06C100FB0310B9EB020454
:105410006AEB00050A21611A75F1000001D23034EF
:1054200009E00A21601A65F10001169909B14121CC
:1054300000E061214418DDE9029A0BF8014B019864
:1054400000F1010001904FF0000189EA01008AEAB1
:1054500001010843C9D1019877E700000FB430B5C6
:10546000A1B00024002580216846FDF79BF925A8FE
:105470002090094B6A462099249806F04FFA04467A
:1054800022466946054804F0A1FF002020902846E6
:1054900021B030BC5DF814FBA154006000401840FE
:1054A0002DE9F04105460C4616461F464FF0000810
:1054B00000BF11E02068401C802806DB2946084810
:1054C000226804F083FF0020206020682E542068AA
:1054D000401C206008F10108B845EBDBBDE8F08115
:1054E0000040184070B588B004460E461546022E9E
:1054F0002FD119A16868FDF767F938B918480EF07F
:10550000D5FD18A0D4F89010884722E019A168684A
:10551000FDF75AF938B912480EF05CFE17A0D4F81E
:105520009010884715E018A16868FDF74DF940B95B
:1055300069460B4812F0C2FB6846D4F890108847C1
:1055400007E012A0D4F89010884713A0D4F8901068
:105550008847002008B070BD737461727400000049
:10556000600600204448435020424547494E0D0AFA
:105570000000000073746F70000000004448435046
:105580002053544F500D0A0073746100554E4B4E1A
:105590004F57210D0A00000055534544206C696B9C
:1055A000652074686973203A2064686370205B5DCD
:1055B0003B205B5D3D73746172742C73746F702C4F
:1055C0007374610D0A00000010B5034801680348B8
:1055D000034A1268904710BDA800002000802D40AB
:1055E000B800002070B504460D4605B905E04FF43B
:1055F000517207A10FA00BF077FA1DB94FF0807020
:10560000606103E04FF08070606100BF00BF70BD5B
:105610002E2E5C2E2E5C6C69627261726965735C01
:10562000647269766572735C66736C5F656E6574CF
:105630002E63000072696E674964203C2046534C1B
:105640005F464541545552455F454E45545F51555F
:10565000455545004160704770B506467468304650
:1056600000F0BAF8054604F0406030B1124850F836
:1056700025103046114A1268904704F0407030B14E
:105680000D4850F8251030460D4A1268904704F432
:10569000C03030B1084850F825103046094A126829
:1056A00090470948204030B1034850F82510304653
:1056B000064A1268904770BDA8000020AC00002088
:1056C000B0000020B800002000007C60B400002082
:1056D00010B50248FFF7C0FF10BD000000802D404C
:1056E0002DE9F04104460D4605B105E040F6822261
:1056F00016A11FA00BF0F8F91F4E606800F40030EF
:10570000B8B14FF400306060002020B1616A41F010
:105710000C01616203E0616A21F00C01616200BF6B
:10572000E86988B1032229462046D5E90773B847BE
:105730000AE0606806406660E86928B102222946EE
:105740002046D5E90773B847BDE8F0812E2E5C2EC0
:105750002E5C6C69627261726965735C64726976F1
:105760006572735C66736C5F656E65742E630000B2
:1057700068616E646C65000000007C6010B50446D2
:1057800004B105E040F2511208A111A00BF0ACF9F0
:1057900020212046FDF706F80120A072E072207358
:1057A000207740F2EE50208110BD00002E2E5C2E9E
:1057B0002E5C6C69627261726965735C6472697691
:1057C0006572735C66736C5F656E65742E63000052
:1057D000636F6E666967000070B50546002406E0D9
:1057E000094850F82400A84200D102E0641C002CB3
:1057F000F6D000BF04B905E040F2491203A10CA0A5
:105800000BF072F9204670BD70ED02602E2E5C2EFA
:105810002E5C6C69627261726965735C6472697630
:105820006572735C66736C5F656E65742E630000F1
:10583000696E7374616E6365203C20415252415918
:105840005F53495A4528735F656E6574426173659D
:10585000732900002DE9F04105460E4605B105E02B
:105860004FF4886224A12DA00BF03EF9686800B1C6
:1058700005E040F2414220A12AA00BF035F906B123
:1058800005E040F242421CA12CA00BF02DF90020B3
:1058900030604FF408476C68608800F4004018B12D
:1058A00040F6A270BDE8F08100BF608800F40040BF
:1058B00020B9208810B94FF47A60F3E76088384047
:1058C000B0F5006F0AD1608800F0370010B14FF4D6
:1058D0007A60E7E7208830600020E3E7608800F422
:1058E000005008B12C6800E008346868A042DCD1A0
:1058F00040F6A270D6E700002E2E5C2E2E5C6C695E
:10590000627261726965735C647269766572735CF8
:1059100066736C5F656E65742E63000068616E640B
:105920006C65000068616E646C652D3E727842643F
:1059300043757272656E745B305D00006C656E67F6
:10594000746800002DE9FC5F05460E4614461F46AC
:10595000DDE90C8B06B105E040F26D1229A132A001
:105960000BF0C2F804B105E04FF4B77225A130A0E6
:105970000BF0BAF807B105E040F26F1221A12EA09A
:105980000BF0B2F8B8F1000F00D005E04FF4B87298
:105990001CA12DA00BF0A8F8207F012800DC05E059
:1059A00040F2711217A12AA00BF09EF82846FFF7CB
:1059B00013FF8146314830F919A003215046FEF704
:1059C00025F900BF00BF686A40F00100686200BFAF
:1059D0003A462146304600F05FFC3A4621463046C2
:1059E00000F088FB3B46224631462846CDE9008B35
:1059F00000F086FA3B4622463146284600F0D4F9AC
:105A0000BDE8FC9F2E2E5C2E2E5C6C69627261726A
:105A10006965735C647269766572735C66736C5FEA
:105A2000656E65742E63000068616E646C650000CD
:105A3000636F6E6669670000627566666572436FC4
:105A40006E666967000000006D6163416464720006
:105A5000636F6E6669672D3E72696E674E756D2065
:105A60003C3D2046534C5F464541545552455F45A9
:105A70004E45545F515545554500000068ED0260A4
:105A80002DE9FF4F83B00C461746984604B105E058
:105A900040F27A4232A13BA00BF026F8606800B1D8
:105AA00005E040F27B422EA138A00BF01DF84FF02C
:105AB00000090026B346656800200290A7B900BF20
:105AC0006068B0F802A000222146039800F0AAFC0A
:105AD0000AF4006000B102E06068A842F0D100BFA3
:105AE000029807B0BDE8F08F33E0688800F40060EA
:105AF000D8B14FF0010B2888404510D12888A0EB81
:105B0000060968680190B8194A460199FCF722FE17
:105B100000222146039800F085FC0298E1E700226C
:105B20002146039800F07EFC12E04FF0000B464542
:105B300000D311E068680190B81922690199FCF757
:105B400009FE2069064400222146039800F06AFC01
:105B50006568BBF1000FC8D000BF40F6A170C0E778
:105B60002E2E5C2E2E5C6C69627261726965735CAC
:105B7000647269766572735C66736C5F656E65747A
:105B80002E63000068616E646C65000068616E647D
:105B90006C652D3E7278426443757272656E745BFB
:105BA000305D00002DE9F04105460C4604B105E0EA
:105BB00040F65D220AA113A00AF096FF4FF040764E
:105BC00008E06E60E06928B1002221462846D4E949
:105BD0000773B847686830400028F2D1BDE8F0810B
:105BE0002E2E5C2E2E5C6C69627261726965735C2C
:105BF000647269766572735C66736C5F656E6574FA
:105C00002E63000068616E646C6500002DE9F05F32
:105C100083460D4617461E4605B105E040F2275261
:105C200041A14AA00AF060FF07B105E04FF4A56268
:105C30003DA148A00AF058FF4FF00008C14640F2CD
:105C4000EE50864203D940F6A370BDE8F09FEC68A1
:105C5000608800F4004010B140F6A470F5E7686970
:105C6000B0421BD3D4F804A0324639465046FCF764
:105C700071FD2680608840F408406080608800F4F0
:105C8000005010B1A868E86002E0E8680830E860F9
:105C900000215846FFF7A6FC0020D6E700BF608829
:105CA00000F4005010B1A868E86002E0E86808302D
:105CB000E860A6EB08096869484518D2D4F804A042
:105CC00007EB080150466A69FCF744FDA88A20806A
:105CD00068698044608820F400606080608840F4D7
:105CE0000040608000215846FFF77CFC13E0D4F8A8
:105CF00004A007EB08014A465046FCF72BFDA4F828
:105D00000090608840F40840608000215846FFF70A
:105D100069FC002099E7EC68608800F400400028E6
:105D2000BDD040F6A47090E72E2E5C2E2E5C6C69E0
:105D3000627261726965735C647269766572735CC4
:105D400066736C5F656E65742E63000068616E64D7
:105D50006C650000646174610000000070B5044669
:105D60000E46154604B105E04FF4CD7203A10CA018
:105D70000AF0BAFEE661256270BD00002E2E5C2E90
:105D80002E5C6C69627261726965735C64726976BB
:105D90006572735C66736C5F656E65742E6300007C
:105DA00068616E646C6500002DE9F04782460C4620
:105DB000174699465046FFF70FFD80464E46242170
:105DC0002046FCF7EFFC387F012801DD012000E0D0
:105DD000387F2076002526E031887068484339896D
:105DE000884200D905E04FF4D87225A12D480AF069
:105DF0007BFEF06844F82500201DF16840F825106E
:105E00000C30716840F825100838316940F82510C9
:105E1000001D316940F825100830B16840F82510A0
:105E20001C36681CC5B2207EA842D5DC1E4840F84E
:105E30002840786800F0406038B11C481C49086070
:105E40001C4931F9180000F05BFB786800F04070E5
:105E500038B1194819490860194931F9180000F09A
:105E60004FFB18497868084038B11748174908604F
:105E7000174931F9180000F043FBBDE8F087000036
:105E80002E2E5C2E2E5C6C69627261726965735C89
:105E9000647269766572735C66736C5F656E657457
:105EA0002E6300005C0C0360A8000020BD6300604E
:105EB000AC0000206AED0260A55B0060B00000202D
:105EC0006CED026000007C60E1560060B4000020D0
:105ED0006EED026010B50B781B064C7843EA044364
:105EE0008C7843EA0423CC7843EA0402C0F8E42027
:105EF0004B790C7943EA04221304C0F8E83010BD52
:105F00002DE9F05F0446154698460027B946D4F8B7
:105F100024A02E68B5F808B006F4007028B140F24D
:105F2000EE50834501D840F2F25B06F0020010B15A
:105F30004FF0804000E0002006F0010111B14FF465
:105F4000004100E00021084306F0010109B12021D1
:105F500000E00021084306F0040111B14FF4805124
:105F600000E00021084306F0080109B1102100E01B
:105F70000021084306F0800109B1082100E000215A
:105F800008435B4901EA0B41084340F4804747F06E
:105F90000407A87A012801D147F48077E87A08B984
:105FA00047F40077287B08B947F00207288800F4F7
:105FB000807030B1A87A012803D047F0010727F09C
:105FC0000207C4F88470D4F8C40020F48279287BD6
:105FD00008B1042000E0002006F0100111B14FF4D8
:105FE000807100E00021084340EA0909C4F8C49028
:105FF000A87BC4F8C001687BC4F8C40106F00100A6
:1060000030B1298AC4F8EC10A87CC4F8940100BF10
:1060100006F0200040B1287D00F03F00C4F84401A4
:10602000E87CC4F8900106E04FF48070C4F84401A5
:106030000020C4F89001A87B00F0180018B14FF4BC
:106040008070C4F84401687B00F0060010B10020A5
:10605000C4F89001D8F81000C4F88401D8F80C00F6
:10606000C4F88001D8F80400C4F8880120460A99D1
:10607000FFF730FF00BF606C00F07E0008B1012028
:1060800000E0002030B92878C0F3801220460B9938
:1060900000F0B6F8A869F8B14FF0A060A16881439C
:1060A000A160A96909784FF07F6202EA0151AA69EB
:1060B0005288114341F04041C4F8F010A9690979B0
:1060C0004FF07F6202EA0151AA69D288114341F080
:1060D0004041C4F8001100BF6868A1680143A16095
:1060E00000BF4AF4817AC4F824A0BDE8F09F000004
:1060F0000000FF3F2DE9F05F83460E46174606B1CC
:1061000005E040F2FA2222A12AA00AF0EDFC07B134
:1061100005E040F2FB221EA128A00AF0E5FC3C4667
:106120004FF000082FE06068FF2800D905E040F23A
:106130000A3217A125A00AF0D7FCE068F0B1606927
:10614000E0B1E068D4F80490D4F814A0002511E080
:1061500005FB09A14160002101804FF4004141800D
:106160002188491EA94203D1418841F40051418050
:1061700008306D1C2188A942EAD800BF1C3408F100
:10618000010000F0FF08307F4045CCDCBDE8F09F07
:106190002E2E5C2E2E5C6C69627261726965735C76
:1061A000647269766572735C66736C5F656E657444
:1061B0002E630000636F6E66696700006275666635
:1061C0006572436F6E6669670000000062756666FF
:1061D0004366672D3E72784275666653697A6541FB
:1061E0006C69676E203E3D20454E45545F52585FB6
:1061F0004D494E5F42554646455253495A45000067
:106200002DE9F04705460C46164604B105E040F27C
:10621000A93213A11BA00AF067FC4FF00008C14689
:1062200000271B48B4FBF0F91A48B0FBF4F0093022
:106230001849B1FBF4F1B0FBF1F0A0F101087E20A8
:1062400000EA49004FF4E06101EA082108430EB179
:10625000802100E0002140EA01076F64BDE8F0877B
:106260002E2E5C2E2E5C6C69627261726965735CA5
:10627000647269766572735C66736C5F656E657473
:106280002E630000737263436C6F636B5F487A0028
:10629000404B4C0000CA9A3B2DE9F05F83460E4606
:1062A000174606B105E04FF431721DA125A00AF092
:1062B0001BFC07B105E040F2C52219A123A00AF09A
:1062C00013FC3C464FF0000825E02069F0B1A069BE
:1062D000E0B12069D4F80890D4F818A0002511E0A6
:1062E00005FB09A14160002101804FF480614180DC
:1062F0006188491EA94203D1418841F4005141807F
:1063000008306D1C6188A942EAD800BF1C3408F12E
:10631000010000F0FF08307F4045D6DCBDE8F09F6B
:106320002E2E5C2E2E5C6C69627261726965735CE4
:10633000647269766572735C66736C5F656E6574B2
:106340002E630000636F6E666967000062756666A3
:106350006572436F6E6669670000000070B50024C7
:106360004FF0405505EA037545F080454FF07866DB
:1063700006EAC15635434FF4F80606EA824635432D
:1063800045F40034046470BDF0B5059C00254FF061
:10639000405606EA037646F080464FF0786707EAF3
:1063A000C1573E434FF4F80707EA82473E4346F49D
:1063B0000036A7B246EA07050564F0BD2DE9F041B5
:1063C00005460C4604B105E040F628220AA113A0B8
:1063D0000AF08AFB4FF0406608E06E60E06928B181
:1063E000012221462846D4E90773B847686830403F
:1063F0000028F2D1BDE8F0812E2E5C2E2E5C6C6957
:10640000627261726965735C647269766572735CED
:1064100066736C5F656E65742E63000068616E6400
:106420006C65000070B506460D46144605B105E0E2
:1064300040F2FF421FA128A00AF056FB04B905E074
:106440004FF4A0621BA126A00AF04EFB281D50F8B5
:106450002400408800F40051281D50F82400418099
:10646000281D50F82400408840F40041281D50F8B1
:1064700024004180281D50F82400408800F400507A
:1064800028B155F82410281D40F8241006E0281DD6
:1064900050F824000830291D41F824001CB94FF0A1
:1064A0008070306103E04FF08070306100BF00BF4A
:1064B00070BD00002E2E5C2E2E5C6C6962726172C3
:1064C0006965735C647269766572735C66736C5F30
:1064D000656E65742E63000068616E646C65000013
:1064E00072696E674964203C2046534C5F464541C3
:1064F000545552455F454E45545F515545554500ED
:10650000014611F1800F01D1012070470846002893
:1065100009DB00F01F0301229A4043099B0003F1AD
:10652000E023C3F8002100BF0020EEE770B5044669
:106530000D46164604A0D4F890108847012084F830
:106540001802002070BD00000D0A5348454C4C2035
:106550006578697465640D0A0000000002460B4806
:1065600001683F2901D2481C00E00020014608488C
:106570000068814202D14FF0FF3070470548405C0F
:106580001070024801600020F7E70000540200206C
:106590005002002010AE012070B50446002500BF57
:1065A00006E0211D51F825000AF0BAFA681CC5B2B0
:1065B0002078A842F5DC20460AF0B2FA70BD00004F
:1065C0000E4810B5006801F0C5F90D48006801F0EB
:1065D000CCF9012001F024FA002001F02FFA00206C
:1065E00001F03CFA002001F0D1F90648006801F002
:1065F000D9F9BDE81040002001F0E4B9780200208C
:10660000740200207002002070B50546002406E0E8
:10661000094850F82400A84200D102E0641C062C6E
:10662000F6D300BF062C00D204E04E2203A10CA03A
:106630000AF05AFA204670BDFCEC02602E2E5C2E49
:106640002E5C6C69627261726965735C64726976F2
:106650006572735C66736C5F6770696F2E630000B0
:10666000696E7374616E6365203C204152524159DA
:106670005F53495A4528735F6770696F426173655C
:10668000732900002DE9F04104460D4616462046C8
:10669000FFF7BAFF124931F910703846FDF74EFC8A
:1066A00060690121A94088436061307828B9606839
:1066B0000121A9408843606009E07278294620469C
:1066C00000F056F861680120A84001436160B77886
:1066D0003A462946204600F005F800BFBDE8F081A3
:1066E00014ED0260F0B503460C462146DD69012633
:1066F000A640B543DD61102C02D203F10C0002E08C
:1067000003F110001039062A2ED2DFE802F02D0323
:106710000A15202705684F000326BE40B5430560D3
:1067200023E005684F000326BE40B5434F00012615
:10673000BE403543056018E005684F000326BE40A3
:10674000B5434F000226BE40354305600DE00568A5
:106750004F000326BE403543056006E0DD69012693
:10676000A6403543DD6100E000BF00BFF0BD000082
:1067700070B504460D461646202D00D204E06E2268
:1067800008A111A00AF0B0F92EB920680121A94092
:106790008843206004E021680120A8400143216073
:1067A00070BD00002E2E5C2E2E5C6C6962726172D0
:1067B0006965735C647269766572735C66736C5F3D
:1067C0006770696F2E63000070696E203C20333261
:1067D0000000000070B504460D46164632462946B4
:1067E0002046FFF7C5FF70BD2DE9F04FDFF828B157
:1067F00091B04FF0FF35DBF80030B3F9221006916D
:10680000DE69B3F92490F469A189814206D8E2894E
:10681000824203D3471AD4F8008012E0D4E9018100
:1068200000296FD00A8882426CD84D88854269D38E
:10683000801A82B2486800EB8200B0F90070B0F9AB
:106840000250781C5ED0307EA17C10FB01FA217CC6
:10685000CDE90701B3F92A60304602F027FDC0B246
:106860000E90DBF8000007FB0A81A37C826B0127F6
:10687000CDE90412CDE90273C069089AC17E807E19
:10688000CDE90001DDE90603494602F001F9681C83
:1068900018D046F0020002F009FDDBF80000A37CEE
:1068A00005FB0A81826BCDE90273CDE90412C06950
:1068B000089AC17E807ECDE90001DDE906034946E4
:1068C00002F0E6F8DBF800005D46C069417E007E1C
:1068D000814214D9022E12D086F0040002F0E6FCA8
:1068E0002868C069027EC37E12FB0391437E857EC9
:1068F000089A06984B4412FB050202F02BFA0E98F8
:1069000002F0D4FCDBF80000627C418C114441842D
:1069100011B0BDE8F08F00007C0200200448006840
:10692000C069C06909B1027C0A60407C7047000000
:106930007C020020022008807047C06982898A4258
:1069400002D8C2898A4210D2806880B102888A4205
:106950000DD843888B420AD3406800EB8100A0EB3E
:106960008200B0F90000002801DB01207047002000
:10697000704700002DE9F0410025174E174C1AE032
:1069800005EB4500C0EB451720696C2200EB870042
:10699000001D3168FBF7DEFE2069002140F827105A
:1069A00000EB870000F10C018161011D0A1DC0E9A7
:1069B0000F126D1C4164A0688542E1DB08F094FD74
:1069C00000EB4001C1EB4010216901EB8000001D8C
:1069D0003060BDE8F08100007C020020440300200C
:1069E00070B50F490D480860084601F079FE0C4D5E
:1069F0007420143DAC684443204600F065F82246FC
:106A00000021286101F074FE4FF0FF30286001F092
:106A1000C9F9BDE8704008F067BD0000B1F800603A
:106A20005803002010B5040009D000F00DFB2046EB
:106A300006F0EEFB044601F089F9204610BD002067
:106A400010BD38B5054600F0FFFA2846FFF7EAFF0B
:106A5000040009D000F0B8F82A460021009001F0A7
:106A600047FE684600F0E0F801F070F9204638BDB6
:106A7000024A106021F0030050607047E4AF01202B
:106A800010B5040011D000F0DFFA0848042101EB32
:106A9000C401406B4158486806F072FB204608F07C
:106AA000F7FFBDE8104001F051B910BD24AF01203F
:106AB000002805D0034AD16B016001B14860D06362
:106AC0007047000024AF01202DE9F041044608F092
:106AD000BBFD2848E41C24F00305016C2D1DA942D0
:106AE00000D90D46C46B13E054F8042CAA420ED111
:106AF00084B1216809B162684A60616809B122689D
:106B00000A60C26BA24231D12168C1632EE02468C1
:106B1000002CE9D18046816BC0680F1857F8040C2F
:106B20003E1A306838B1002009F00EF857F8040C0E
:106B30003E1A3068D0B97068A84217DB3044441B55
:106B40003046241D08F0B8FFD8F80C10491BC8F8CF
:106B50000C10D8F814102944C8F814107068401BA1
:106B600002D0314606F00CFB44F8045C2046BDE838
:106B7000F081000024AF012010B5002408F064FD6E
:106B80000C490F2001EBC002526C1AB101EBC0009E
:106B9000406C08E0401EF5D508E04168A14200D9EC
:106BA0000C46806810B180680028F6D1A4F10C0072
:106BB00010BD000024AF012002488169491C816199
:106BC0007047000024AF01200549CA69521CCA6100
:106BD000496B01EBC0010A78521C0A7000F03CB806
:106BE00024AF012010B500F02FFAFFF7C5FF642293
:106BF0000849B0F5800F04D990FBF2F4086A4443C9
:106C000003E0096A4143B1FBF2F401F09FF820462A
:106C100010BD000024AF012002488169491E816136
:106C20007047000024AF01200A4902684B6B52F8FC
:106C3000082C03EBC2021378022B03D3CB690BB1F0
:106C40005B1ECB611178491E11700021016008465E
:106C50007047000024AF01200349042202EBC0006A
:106C6000496B08580830704724AF012010B5C2B2F4
:106C7000CBB2D21A00D5524293B25B43C0F3072283
:106C8000C1F30724121B00D55242000C92B2A0EBB4
:106C9000114002FB023200B2002801DA404200B289
:106CA00080B200FB002010BD10B50021084600F0A6
:106CB00089F943F6FF725042BDE810401346014681
:106CC000AFF300802DE9FC411C4615460E460746F1
:106CD00000F0BAF9042002F0E9FA8046124840694F
:106CE000C16C006D0F4406440D440444ADF80070BF
:106CF000ADF80450ADF80260ADF80640684605F006
:106D0000EBFE07E023462A463146384602F022F8D9
:106D100005F0B0FE0028F5D1404602F0C7FA01F0B8
:106D200015F8BDE8FC810000680200202DE9F04163
:106D30001C4616460D460746012B02DB0020BDE827
:106D4000F0811C20FFF7C0FE0028F8D00DB10561CE
:106D50000AE0094A52F8241009B905E011460A6808
:106D6000002AFBD1096901618461868200210160EA
:106D70004160C0E90217E2E79002002070B51D46AD
:106D8000FFF7D4FF040009D000F00EF8E0680068B7
:106D900020B90348006800EB85008465204670BD7B
:106DA0007C020020FFF784BE70B5C0B38269012A5F
:106DB00036DA2149531C0C789C4200DA0B701F4CC8
:106DC00054F8221019B944F8220032E019464B68F1
:106DD000002BFBD106E0CB68C5681B682D68AB4271
:106DE00003DD09680029F6D11AE0C1B1CB68C66895
:106DF0001B683668B3420CD1838A012B05D008E0AA
:106E00001946DB681B68AB4203DB0B68002BF7D12C
:106E100029B14B6833B118604A68426004E0FFE76B
:106E2000012070BD44F822004860884200D1002152
:106E30000160002070BD0000B90200209002002017
:106E400010B503E00468FFF7AFFF20460028F9D132
:106E500010BD000010B50C4B8269002153F8224090
:106E6000844205D1046843F82240026802B15160AF
:106E700042680AB10368136002680AB1436853604C
:106E80000160416010BD00009002002000207047AA
:106E9000012801DB00207047054951F8200004E07B
:106EA000C16809680029F6D000680028F8D1704749
:106EB000900200202DE9F041044600F06EFF061913
:106EC000164F1FE000F02EF83868844200DD0446BB
:106ED000A04600F0B9F812480568FFF76DFE2C00D7
:106EE00017D000BF00F032FF641EFBD1404600F017
:106EF00049FF1DB100F0A8F86D1EFBD1FFF78CFE15
:106F000000F024FF00F049FF341A002CDADCBDE861
:106F1000F081404600F036FFF0E7000064020020F8
:106F20005003002010B5002400E0012400F004F814
:106F30000028FAD1204610BD0B4810B50068002487
:106F400010B1804700B1012405F094FA00B101248A
:106F50000648006810B1804700B101240448006869
:106F600000B18047204610BD88020020A802002002
:106F7000A4020020034951F82000C1688A6A082150
:106F8000104700009002002070B50C46054600F046
:106F90005BF82146284601F08BFABDE8704000F00E
:106FA000D5BE0000024951F8200000690068704712
:106FB00090020020024951F82000006940687047A3
:106FC0009002002070B50D46044600F03DF82046C2
:106FD00008F0ACFA0446284608F0B0FA044300F082
:106FE000B5FE204670BD000070B500F0B9FF144D2D
:106FF0002E20287000F0D5FE124808F0DBFA01F0D0
:107000007BFF064601F018FF10B101F029FF38B9E7
:1070100001F02FFF044601F018FF214602F040F96D
:107020000021084600F0DCFC05F090FAFFF7A2FC16
:10703000A86900B180470120A870304670BD0000EB
:1070400068020020F0AF012070B51A4CE06820B152
:1070500000F09FFE6168884204D000F0B5FE00F0A9
:1070600098FE6060E068401CE060012820D108F0D4
:107070003BFA0546206885421AD0002817DBFFF747
:1070800005FF0146206800EB4002C2EB4012206978
:1070900000EB8202116705EB4501C1EB4511064A81
:1070A00000EB8100011D1160006FFFF7C9FE256034
:1070B00070BD0000440300207C0200201CB50400C9
:1070C00004D10E480068C46D002C16D0FFF7BCFF39
:1070D0002046FFF779FD009044696846FFF7A4FD5C
:1070E0004CB12046FFF770FD0190816889688847A0
:1070F00001A8FFF799FD00F029FE1CBD7C020020CD
:1071000001490A4600F002B801F0FFFF2DE9FE43F5
:1071100015460C46070040D0FFF796FF002000F010
:1071200035FC80461E480068C66D3846FFF74CFDAA
:10713000029000F0E9FB40F6FF70C44204D10298CF
:10714000B0F90440B0F906500298611E0289ADF80A
:1071500000401144ADF804104189681E0844ADF8A0
:107160000250ADF8060004F0D3FF02A8FFF75CFD63
:10717000684605F0B1FC06E02A462146384600F094
:10718000CDFA05F077FC0028F6D1304600F090F9F2
:10719000404600F0FBFB00F0D9FDBDE8FE83000097
:1071A0007C0200202DE9FE4F984691468A46834690
:1071B00000270C9EFFF748FF184819490068407CDB
:1071C00051F82040E1680968042903D02468002CA4
:1071D000F8D100E01CB9FFF75BFE041E1BD0E0688D
:1071E0000121C26A20469047050011D02469A06899
:1071F0008047401C02D10B4C46F001060096CDE9B9
:10720000015443464A465146584600F0E5F90746C0
:1072100000F09CFD3846BDE8FE8F00007C02002097
:1072200090020020DC08036038B504001CD0FFF792
:107230000BFF0E480068C06DA04201D100F064FB56
:107240002046FFF7C1FC0090406908B100F067FDDF
:1072500000980068FFF7A6FD6846FFF7E5FC2046AA
:10726000FFF70EFC00F072FD38BD00007C0200202C
:107270002DE9FF4F83B09A468B460746FFF7E4FEA1
:10728000DFF83891D9F80000447C4D4800570128B8
:10729000204606DD01F0D6FD0546204601F0E6FD5C
:1072A00005E001F0B8FD0546204601F0BAFD0446B0
:1072B0001FB302A901A8FFF767FEB7F90000002875
:1072C00000DA0020B7F902608046002E00DA0026BE
:1072D00001984119B7F90400491E08F037FA05462C
:1072E00002980119B7F90600491E08F02FFAA5EB1C
:1072F0000802841B521C641C03E04FF00008464641
:107300002A46BAF1000F01D1C4F1000A002A51DD6A
:10731000002C4FDD10980090534631464046FFF751
:1073200041FF5FEA000A10D000F07CF80746A04257
:1073300006D0D9F80000806C10B1322105F098FE1B
:10734000504600F0B5F8002523E0594605988847D7
:1073500000F0FCFC012007B0BDE8F08F611BB942D2
:1073600002DA504600F088F83DB1721941465046A5
:1073700000F0C6F85046FFF7A1FE59460598884729
:107380001048016809B1002088475046FFF7B8FE51
:107390003D44A542E2DB5046FFF746FF002000F0E7
:1073A00087F8A74206D0D9F80000806C10B13321CD
:1073B00005F05EFE00F0CAFC0020CCE77C02002055
:1073C000B80200208403002038B505004FF0000407
:1073D00011D0FFF739FE2846FFF7F6FB0090006852
:1073E00000698068804702F035F904466846FFF777
:1073F0001BFC00F0ABFC204638BD38B504000ED0B5
:10740000FFF722FE2046FFF7DFFB00F11804009093
:107410006846FFF709FC00F099FC204638BD0020C3
:1074200038BD000038B504460025FFF70DFE1CB935
:1074300008480068C46D44B12046FFF7C5FB0090C2
:10744000B0F90A506846FFF7EFFB00F07FFC2846D2
:1074500038BD00007C02002070B505460024284697
:1074600005F0CEFF641C18B1BDE8704000F07AB89A
